:100000000C942A000C9434000C9434000C943400AA
:100010000C9434000C9434000C9434000C94340090
:100020000C9434000C9434000C9434000C94340080
:100030000C9434000C9434000C9434000C94340070
:100040000C9434000C9434000C9434000C94340060
:100050000C94340011241FBECFE5D4E0DEBFCDBF29
:100060000E9462000C9492000C94000010BC83E388
:1000700089B98AB188618AB980B5866880BD0895DA
:100080005D9BFECF8CB908955F9BFECF8CB1089528
:10009000FC0104C05D9BFECF31968CB98081882322
:1000A000C9F708959C0190E05F9BFECF8CB1F901E8
:1000B000E90FF11D8083861711F09F5FF5CF108245
:1000C000C90108958FE084BB10BC83E389B98AB16C
:1000D00088618AB980B5866880BD4AE035E022E053
:1000E00098E05F9BFECF8CB1813411F0813611F422
:1000F00045BBF7CF823411F0823611F435BBF1CF16
:10010000833411F0833611F425BBEBCF843411F026
:10011000843611F495BBE5CF853411F0853609F7A7
:0801200015BADFCFF894FFCF00
:00000001FF
